S01500004469616D6F6E644D696E6572732E73726563E5
S11300000C949B000C94B8000C94B8000C94B800A9
S11300100C94B8000C94F2000C94B8000C94B80042
S11300200C94B8000C94B8000C94B8000C94B8006C
S11300300C94B8000C94B8000C94B8000C94B8005C
S11300400C946E0D0C94B8000C94B8000C94B80089
S11300500C94A70C0C94650C0C94B8000C94B80088
S11300600C94B8000C94B8000C94B8000C94B8002C
S11300700C94B8000C94B8000C94B8005C0E4D0EAF
S1130080500E530E560E590E470E4A0E4469616DBA
S11300906F6E6420436F756E742025640043484579
S11300A041544D4F44452044495341424C4544003A
S11300B043484541544D4F444520454E41424C45EB
S11300C044005072657373206120627574746F6E9E
S11300D020746F20737461727420616761696E00AB
S11300E047414D45204F5645520043535345323006
S11300F031302F373230312070726F6A656374206B
S11301006279204D617474686577204368656E2058
S11301103436333837313130004469616D6F6E6481
S1130120204D696E657273001B5B324A001B5B25B0
S1130130643B2564480011241FBECFEFD8E0DEBF26
S1130140CDBF13E0A0E0B1E0EAE8FAE202C0059016
S11301500D92AE33B107D9F726E0AEE3B3E001C0A8
S11301601D92A739B207E1F70E949A0B0C9443152C
S11301700C940000E8E6F0E08081826080838BB319
S113018082608BBBECE6F0E080818F60808310920C
S11301903E03089580913E03181614F580913F03A1
S11301A06FB7F89491E009C0F901E15CFC4F40811C
S11301B0F901E25CFC4F40839F5F292F30E04091BE
S11301C03E03042E000C550B241735076CF3909155
S11301D03E03915090933E0366231CF47894089553
S11301E08FEF08951F920F920FB60F9211242F9341
S11301F03F934F938F939F93EF93FF9343B14F702C
S113020080E026C090913E0394300CF5242F30E01A
S1130210082E02C0359527950A94E2F720FF17C0EF
S11302202091430330E0082E02C0359527950A94A7
S1130230E2F720FD0CC0E0913E0391E09E0F909305
S11302403E030E2E000CFF0BE15CFC4F80838F5F9E
S11302508430C0F240934303FF91EF919F918F91BB
S11302604F913F912F910F900FBE0F901F901895B3
S11302700E94FA0708951F93CF93DF93CDB7DEB79B
S113028028970FB6F894DEBF0FBECDBF0E94FA07C1
S113029010E029C0E12FF0E0E25EFE4F908190FF74
S11302A002C02FE001C020EF87E013C0992344F47B
S11302B0E1E0F0E0EC0FFD1FE80FF11D208307C023
S11302C0E1E0F0E0EC0FFD1FE80FF11D1082990F43
S11302D081508111EBCF1982BE016F5F7F4F812F57
S11302E00E94DD071F5F1031A8F228960FB6F8941C
S11302F0DEBF0FBECDBFDF91CF911F910895803136
S113030058F5683048F541305105B9F0423051058F
S1130310B1F09A01235031092230310590F0473071
S1130320510589F04530510581F04630510579F089
S11303304830510571F441E10DC04FE00BC041E07C
S113034009C04FED07C04CE305C040EF03C045E3CF
S113035001C040E00E94BE07089510925405109217
S11303604C0381E080935705109255059FEF9093BD
S1130370560590934D04809352058093D0041092B7
S1130380D1041092CF04809353051092CE0440E020
S113039050E038C0E7E0F0E0E21BF30BE295F295A1
S11303A0F07FFE27E07FFE27E40FF51FEE0FFF1F0F
S11303B0E25CFD4F60817181CA01880F991F880F2B
S11303C0991F880F991FFC01E20FF31FEE0FFF1F07
S11303D0E35BFC4F71836083FC01EE52FB4FE20F41
S11303E0F31F1082825B9B4FFC01E20FF31F10820C
S11303F02F5F3F4F02C020E030E02830310554F237
S11304004F5F5F4F40315105B4F308951092540586
S113041010924C0381E080935705109255059FEF8D
S11304209093560590934D04809352058093D00485
S11304301092D1041092CF048093530540E050E011
S113044038C0E7E0F0E0E21BF30BE295F295F07FB1
S1130450FE27E07FFE27E40FF51FEE0FFF1FE25C8F
S1130460FE4F60817181CA01880F991F880F991FFF
S1130470880F991FFC01E20FF31FEE0FFF1FE35BD0
S1130480FC4F71836083FC01EE52FB4FE20FF31FBC
S11304901082825B9B4FFC01E20FF31F10822F5FDF
S11304A03F4F02C020E030E02830310554F24F5F66
S11304B05F4F40315105B4F30895803120F4683022
S11304C020F080E0089580E0089581E00895CF93BE
S11304D0DF93C82FD62F0E945D02882381F0EC2F72
S11304E0F0E0EE0FFF1FEE0FFF1FEE0FFF1FED0FEB
S11304F0F11DEE0FFF1FE35BFC4F808101C084E020
S1130500DF91CF910895CF93DF93D0915505C0919A
S113051057056D2F8C2F0E945D028823D9F080919E
S11305205205882359F06D2F8C2F0E946702482FA3
S113053050E06D2F8C2F0E947F0106C042E050E0F6
S11305406D2F8C2F0E947F019091520581E0891BB1
S113055080935205DF91CF9108958091D10408953D
S1130560DF92EF92FF920F931F93CF93DF93F82EB6
S1130570E62E082F10E0C62FD0E0C801880F991F7F
S1130580880F991F880F991FFC01EE52FB4FEC0F47
S1130590FD1F21E02083825B9B4FFC01EC0FFD1FBC
S11305A020838F2D0E946702D82E80915405081B4A
S11305B01109C801992324F488279927801B910BDA
S11305C09C0180914C03C81BD109CE0122F48827D9
S11305D099278C1B9D0BAC01820F9091CE0499231B
S11305E051F0833040F0833061F42130310519F04B
S11305F04130510531F44D2D50E06E2D8F2D0E9468
S11306007F01DD2049F185E0D8122EC028C0F80111
S1130610EE0FFF1FE25DFE4FC081CF0DD181DE0DD5
S11306206D2F8C2F0E945D02882399F0EC2FF0E04F
S1130630EE0FFF1FEE0FFF1FEE0FFF1FEE52FB4FDB
S1130640ED0FF11D8081811104C06D2F8C2F0E944C
S1130650B0020F5F1F4F05C000E010E002C000E0D1
S113066010E0083011059CF2DF91CF911F910F919A
S1130670FF90EF90DF9008950F931F93CF93DF9334
S11306800E94380100E010E00FC046E050E06C2FFB
S1130690802F0E947F01219602C0C0E0D0E0C830C4
S11306A0D1059CF30F5F1F4F00311105B4F3609126
S11306B04C03809154050E94B00241E050E06091E7
S11306C04C03809154050E947F0142E050E0609108
S11306D05505809157050E947F01DF91CF911F91AD
S11306E00F910895811103C00E94AD0102C00E94C0
S11306F006020E943C0308951F93CF93DF93182FA3
S1130700D0915505C09157056D2F8C2F0E9467021B
S1130710833011F0873049F5111113C0EC2FF0E04C
S1130720EE0FFF1FEE0FFF1FEE0FFF1FED0FF11D6A
S1130730EE0FFF1FE35BFC4F87E090E09183808323
S113074014C0EC2FF0E0EE0FFF1FEE0FFF1FEE0FB3
S1130750FF1FED0FF11DEE0FFF1FE35BFC4F118236
S113076010826D2F8C2F0E94B002DF91CF911F91C8
S11307700895CF93DF93D0914C03C09154056D2F0E
S11307808C2F0E946702853091F4EC2FF0E0EE0F7D
S1130790FF1FEE0FFF1FEE0FFF1FED0FF11DEE0FFA
S11307A0FF1FE35BFC4F1182108281E001C080E0F7
S11307B0DF91CF910895EF92FF920F931F93CF9300
S11307C0DF9300E010E0EE24EA94FE2C2CC06C2FA2
S11307D0802F0E9467028530E9F48091540590E0EF
S11307E0801B910B9C0122F422273327281B390BF1
S11307F0A90180914C0390E08C1B9D0B9C0122F479
S113080022273327281B390B240F351F2E153F05AC
S113081008F47901219602C0C0E0D0E0C830D105C7
S1130820B4F20F5F1F4F00311105B4F3C701DF911C
S1130830CF911F910F91FF90EF90089580915605ED
S11308408F3F01F580914D048F3FF1F49091540551
S1130850E92FF0E080914C03EE0FFF1FEE0FFF1F16
S1130860EE0FFF1FE80FF11DEE0FFF1FE35BFC4FC0
S113087028E030E0318320839093560580934D0423
S113088081E0089580E0089580E008958091CF0488
S113089008958091530508950F931F93CF93DF9389
S11308A000E010E00FC06C2F802F0E94670285309B
S11308B091F0219602C0C0E0D0E0C830D1059CF38D
S11308C00F5F1F4F00311105B4F3809154058F3031
S11308D021F481E003C080E001C080E0DF91CF918A
S11308E01F910F9108950F931F93CF93DF938091DE
S11308F0CE0481116EC072C04091540550E098013D
S1130900241B350BC901992324F488279927821BBA
S1130910930B9C0160914C0370E0FE01E61BF70B06
S1130920CF0122F4882799278E1B9F0BFC01820F8D
S1130930833038F0833081F52130310511F031975F
S113094059F50417150719F4C617D707B9F1F801B3
S1130950EE0FFF1FEE0FFF1FEE0FFF1FE25BFB4FBB
S1130960EC0FFD1F8081813049F5F801EE0FFF1F68
S1130970EE0FFF1FEE0FFF1FEE52FB4FEC0FFD1F9C
S113098080836C2F802F0E946702482F50E06C2FC9
S1130990802F0E947F0112C0F801EE0FFF1FEE0F9F
S11309A0FF1FEE0FFF1FEE52FB4FEC0FFD1F1082D7
S11309B046E050E06C2F802F0E947F01219602C0F8
S11309C0C0E0D0E0C830D1050CF496CF0F5F1F4FC4
S11309D002C000E010E00031110594F3DF91CF91E3
S11309E01F910F910895FF920F931F93CF93DF935D
S11309F0D82FC62FF0904C036F2D6C0F0091540527
S1130A00802F8D0F0E946702182F882311F08530E4
S1130A1011F56F2D802F0E946702482F50E06F2D33
S1130A20802F0E947F01809154058D0F809354057F
S1130A3080914C038C0F80934C038091CF048336B8
S1130A4018F48F5F8093CF04153039F40E94790E27
S1130A50FF24F39404C0F12C02C0FF24F39400910A
S1130A60550510915705602F812F0E946702482F6A
S1130A7050E0602F812F0E947F0180915405D80F90
S1130A80D093570580914C03C80FC09355050E941D
S1130A90830241E050E060914C03809154050E9430
S1130AA07F010E9473048F2DDF91CF911F910F91CD
S1130AB0FF9008959091CE0481E089278093CE041D
S1130AC08823B9F02AC0F901EE0FFF1FEE0FFF1FB4
S1130AD0EE0FFF1FEE52FB4FE80FF91F1082019635
S1130AE002C080E090E0883091056CF32F5F3F4FA7
S1130AF002C020E030E0203131059CF360914C03CA
S1130B00809154050E94B00241E050E060914C0392
S1130B10809154050E947F0108950E9473040895F2
S1130B208091540590E020915605821B91099C0107
S1130B3022F422273327281B390B422F80914C03A0
S1130B4090E020914D04821B91099C0122F42227FC
S1130B503327281B390B240F223010F481E0089529
S1130B6080E00895809156058F3F31F080914D04C7
S1130B708F3F21F480E0089580E0089581E0089596
S1130B8090E020915405821B91099C0122F42227B4
S1130B903327281B390B70E080914C03681B7109C3
S1130BA0CB01992324F488279927861B970BAC0142
S1130BB0820F9091CE04992361F0833060F08330EA
S1130BC061F42130310559F04130510551F080E094
S1130BD0089581E0089581E0089580E0089581E01A
S1130BE0089581E00895CF93DF93C0915605CF3FD8
S1130BF081F0D0914D04DF3F61F06D2F8C2F0E9466
S1130C00C005882331F041E050E06D2F8C2F0E9405
S1130C107F01DF91CF9108950F931F93CF93DF93BB
S1130C20E0915605EF3F09F4CFC080914D048F3F0A
S1130C3009F4CAC0F0E0EE0FFF1FEE0FFF1FEE0F26
S1130C40FF1FE80FF11DEE0FFF1FE35BFC4F118246
S1130C501082CFEFDFEF3EC0109156051C0F0091BC
S1130C604D04212F30E0802F90E0F901EE0FFF1F9B
S1130C70EE0FFF1FEE0FFF1FE80FF91FEE0FFF1F10
S1130C80E35BFC4F408151814330510519F04730FB
S1130C905105F9F4F901EE0FFF1FEE0FFF1FEE0FE0
S1130CA0FF1FE80FF91FEE0FFF1FE35BFC4F1182DC
S1130CB01082602F812F0E94C005882331F040E00C
S1130CC050E0602F812F0E947F01602F812F0E94AE
S1130CD0B0022296C230D1050CF4BECFCFEFDFEFC5
S1130CE03EC00091560510914D041C0F202F30E09A
S1130CF0812F90E0F901EE0FFF1FEE0FFF1FEE0FA3
S1130D00FF1FE80FF91FEE0FFF1FE35BFC4F40814D
S1130D1051814330510519F047305105F9F4F90177
S1130D20EE0FFF1FEE0FFF1FEE0FFF1FE80FF91F5F
S1130D30EE0FFF1FE35BFC4F11821082612F802FA7
S1130D400E94C005882331F040E050E0612F802FDD
S1130D500E947F01612F802F0E94B0022296C23030
S1130D60D1050CF4BECFC09156058091540590E096
S1130D708C1B91099C0122F422273327281B390B51
S1130D80422FD0914D0480914C0390E08D1B91092A
S1130D909C0122F422273327281B390B240F2230ED
S1130DA018F481E08093D1046D2F8C2F0E94C0052C
S1130DB0882331F040E050E06D2F8C2F0E947F019A
S1130DC01092D0040E94F305DF91CF911F910F91EF
S1130DD008950F931F93CF93DF93809156058F3F10
S1130DE0A1F180914D048F3F81F1CFEFDFEF12C06D
S1130DF0109156051C0F00914D04602F812F0E9405
S1130E00C005882331F042E050E0602F812F0E941A
S1130E107F012296C230D1055CF3CFEFDFEF12C021
S1130E200091560510914D041C0F612F802F0E94D4
S1130E30C005882331F042E050E0612F802F0E94EA
S1130E407F012296C230D1055CF3DF91CF911F91CF
S1130E500F9108950F931F93CF93DF9380915605BD
S1130E608F3F09F452C080914D048F3F09F44DC067
S1130E70CFEFDFEF16C0109156051C0F00914D0403
S1130E80602F812F0E94C005882351F0602F812F8D
S1130E900E946702482F50E0602F812F0E947F013B
S1130EA02296C230D1053CF3CFEFDFEF16C000919C
S1130EB0560510914D041C0F612F802F0E94C00510
S1130EC0882351F0612F802F0E946702482F50E041
S1130ED0612F802F0E947F012296C230D1053CF3FE
S1130EE0D0914D04C09156056D2F8C2F0E94C005E2
S1130EF0882331F040E050E06D2F8C2F0E947F0159
S1130F008FEF8093560580934D04DF91CF911F910D
S1130F100F910895CF93DF93C0915605CF3F39F1D8
S1130F20D0914D04DF3F19F18091D004882369F0FA
S1130F306D2F8C2F0E94C005882399F04FEF50E04D
S1130F406D2F8C2F0E947F010CC06D2F8C2F0E945F
S1130F50C005882331F048E050E06D2F8C2F0E94AB
S1130F607F019091D00481E0891B8093D004DF91AC
S1130F70CF91089580E80E94FA0C08951F93CF93AF
S1130F80DF938031B0F46830A0F4142FC62FD82F2B
S1130F9081E00E94260D6C2F677080E1689F9001AC
S1130FA011248D2F8F70822B0E94260D812F0E9479
S1130FB0260DDF91CF911F9108950F931F93CF9327
S1130FC08031A0F48B01C82F83E00E94260D8C2F62
S1130FD08F700E94260DC0E007C0F801EC0FF11DD0
S1130FE080810E94260DCF5FC830B8F3CF911F9146
S1130FF00F9108958FE00E94260D08950E943D0DE3
S11310006AE070E08AE090E00E942C0D89E191E0B2
S11310109F938F930E9455126CE070E08AE090E0F9
S11310200E942C0D8AEE90E09F938F930E9455129C
S11310300E943B010F900F900F900F900E94590C4B
S1131040882339F080919106909192060E9417129C
S113105001C08FEF833731F0833521F00E94CA003D
S11310608F3F61F308950E943D0D809144030E94D7
S113107072030E94CA000E94600C08958F929F928E
S1131080AF92BF92CF92DF92EF92FF920E943D0DFA
S11310906EE070E08AE090E00E942C0D80EE90E01B
S11310A09F938F930E9455126FE070E08AE090E066
S11310B00E942C0D82EC90E09F938F930E94551216
S11310C00E94D10E0E945E0D4B015C010F900F90A7
S11310D00F900F901DC00E945E0D6B017C01D50125
S11310E0C401C296A11DB11DC816D906EA06FB06A5
S11310F010F00E94E906D501C4018C599F4FAF4FEF
S1131100BF4FC816D906EA06FB0610F00E942A074C
S11311100E94CA008F3FF9F20E943308FF90EF90BB
S1131120DF90CF90BF90AF909F908F900895CF9312
S1131130C82F0E943D0D6AE070E08AE090E00E94B2
S11311402C0DC13049F480EB90E09F938F930E9463
S113115055120F900F900BC08DE990E09F938F93E1
S11311600E94551282B18F7782B90F900F900E941E
S1131170DB03019619F482B18F7782B96CE070E0D9
S11311808AE090E00E942C0D809146038F93809119
S113119045038F938CE890E09F938F930E945512A0
S11311A00E94DB0390930101809300010F900F9044
S11311B00F900F90CF91089580EE81B98FEF87B98A
S11311C080E480937C0086E880937A0008950E94EE
S11311D0BA070E94BA0040E060E07BE480E090E05F
S11311E00E94120C0E94DC080E94460D0E94590FB6
S11311F078940895ECE7F0E080818E7F8083EAE7BD
S1131200F0E080818064808380917A0086FDFCCF49
S113121080917800909179000895ECE7F0E0808166
S113122081608083EAE7F0E080818064808380913C
S11312307A0086FDFCCF8091780090917900089522
S11312402F923F924F925F926F927F928F929F92D2
S1131250AF92BF92CF92DF92EF92FF920F931F93C0
S1131260CF93DF93CDB7DEB72C970FB6F894DEBFDC
S11312700FBECDBF10924603109245030E945E0D2F
S11312806A837B838C839D830E945E0D6F83788742
S113129089879A8780E00E94970821E02E830F2E89
S11312A0F8E52F2EF2E03F2EF02D1982812C912C9F
S11312B0540144244A94542C320115C20E94CA0099
S11312C0082F0E945E0DDC01CB0188199909AA0937
S11312D0BB09853F9140A105B10528F4811491040F
S11312E0A104B104F1F40E94FA089C878B870E9440
S11312F00D096C018B859C858D529140813C9140F8
S113130028F00E945E0D4B015C0117C0C6018D528E
S11313109140813C914070F00E945E0D4B015C0154
S11313200CC0C12C6894DD24D1F880E092E09C8745
S11313308B8703C0812C912C54010E94590C882363
S113134041F080919106909192060E941712182FF5
S113135001C01FEF002349F0143639F0143429F08A
S11313602B853C852E3E3240D0F060E081E00E9427
S1131370F304F82E0E944C048111BAC10E94B903EF
S1131380813071F4809145039091460301969093C6
S113139046038093450389810E94970801C0F12C7C
S11313A0013049F0133739F0133529F05EEEC516D4
S11313B052E0D506D8F0F11019C06FEF80E00E941A
S11313C0F304F82E0E944C04811192C10E94B903C7
S11313D0813061F480914503909146030196909386
S11313E046038093450389810E949708023049F09F
S11313F0173739F0173529F08DE2C81681E0D80681
S1131400D8F4F11019C061E080E00E94F304F82ED2
S11314100E944C0481116CC10E94B903813061F4B3
S113142080914503909146030196909346038093DF
S1131430450389810E949708033049F0113639F039
S1131440113429F02B853C852D323140E0F4F11024
S11314501AC060E08FEF0E94F3040E944C048111D3
S113146047C10E94B903813009F09FC080914503B0
S11314709091460301969093460380934503898196
S11314800E94970892C0153611F0153421F4898111
S11314900E947C038AC0133611F0133441F481E0B6
S11314A05981511180E089830E9497087EC01032CF
S11314B081F40E941E04813009F077C00E945E0D01
S11314C02B013C01E0ED4E0EE7E05E1E611C711C39
S11314D06CC0103719F0103509F05AC00E945E0D27
S11314E0242D261B2B870E945E0D3F81631B6F8377
S11314F00E940010813079F00E949D0F0CC00E9460
S1131500590C1FEF882339F080919106909192062F
S11315100E941712182F103791F3103581F30CC065
S11315200E94590C1FEF882339F080919106909105
S113153092060E941712182F103779F0103581F790
S11315400CC00E94590C1FEF882339F0809191063A
S1131550909192060E941712182F103791F31035AC
S113156081F30E945E0D2B013C014B85440E511CFE
S1131570611C711C0E945E0D9B01AC01EF812E1B4E
S11315803109410951092F83388749875A870DC08A
S1131590163611F0163419F40E945A0506C01D3689
S11315A011F01D3411F40E949D0F0E945E0D6B0119
S11315B07C018A819B81AC81BD818C509E4FAF4F51
S11315C0BF4FC816D906EA06FB0630F00E94830214
S11315D0CA82DB82EC82FD8280910001909101013C
S11315E0019601F139813130E9F40E94DB032DE7E2
S11315F0AC01249FC001259F900D11242F813885B3
S113160049855A85280F391F411D511DC216D3061D
S1131610E406F50638F082B1805882B9CF82D886C4
S1131620E986FA860E94B205882309F456C00E940E
S11316309005882321F082B1806282B903C082B10F
S11316408F7D82B9C414D504E604F70420F00E9407
S11316500C060E94FB0ED301C201C296A11DB11D4E
S1131660C816D906EA06FB0610F00E94E906D30163
S1131670C2018C599F4FAF4FBF4FC816D906EA0617
S1131680FB0660F00E942A070F2EF8E52F2EF2E0E9
S11316903F2EF02D44244A94542C3201D301C2012C
S11316A082199309A109B109C816D906EA06FB06ED
S11316B0A0F03CE42316310470F0B10180E090E026
S11316C00E94D51020E030E040EC5FE30E9434102B
S11316D00E94A6101B010E948A074E81442319F020
S11316E00E94A30E1E820E94AD02882309F4E6CD57
S11316F02C960FB6F894DEBF0FBECDBFDF91CF910D
S11317001F910F91FF90EF90DF90CF90BF90AF901B
S11317109F908F907F906F905F904F903F902F900D
S113172008959091440381E08927809344030E94A3
S1131730330808950E94E7080E94FE070E943308B8
S11317400E9420090E944C04882319F00E94910BE6
S1131750F5CF0E943E08F2CFCF93C82F8A3019F4F8
S11317608DE00E94AC0B9FB7907802C0992329F1B9
S1131770809159058F3FD1F3F894E091580581E0A9
S11317808E0F80935805F0E0E65AFA4FC08380919B
S113179059058F5F80935905809158058F3F11F447
S11317A010925805E1ECF0E08081806280839923F7
S11317B039F0789480E090E005C081E090E002C0C8
S11317C080E090E0CF91089580916B068823E1F347
S11317D02FB72078F8948091590630916B0690E0E9
S11317E0831B91095AF4E091590680916B06F0E04D
S11317F0E81BF109E659F94F80810AC0E0915906C6
S113180080916B06F0E0E81BF109E65AF94F8081FC
S113181090916B06915090936B06222309F0789473
S113182090E00895109258051092590510925906A7
S113183010926B0610926A0640934703DC01CB01B9
S1131840880F991FAA1FBB1F880F991FAA1FBB1FB0
S11318509C01AD01220F331F441F551F60E072E14C
S11318608AE790E00E94F211BA01A9014F5F5F4F2D
S11318706F4F7F4FDB01CA011AF40196A11DB11D00
S1131880B595A7959795879501979093C5008093F3
S1131890C400E1ECF0E088E180838081806880838B
S11318A0E1E9F6E082E091E093838283918380838F
S11318B0089590916B0681E0911101C080E0089534
S11318C01092590610926B0608951F920F920FB64C
S11318D00F9211242F938F939F93EF93FF938091F3
S11318E05905882329F1809158052091590590E0E4
S11318F0821B91095AF4E091580580915905F0E052
S1131900E81BF109E75AF94F90810AC0E0915805A4
S113191080915905F0E0E81BF109E65AFA4F9081ED
S1131920809159058150809359059093C60005C054
S1131930E1ECF0E080818F7D8083FF91EF919F91B6
S11319408F912F910F900FBE0F901F9018951F929B
S11319500F920FB60F9211242F933F934F935F93DF
S11319606F937F938F939F93AF93BF93CF93EF9393
S1131970FF93C091C60080914703882349F080916A
S113198059058F3F29F060E070E08C2F0E94AC0B6A
S113199080916B06803120F081E080936A0618C044
S11319A0CD3009F4CAE0E091590681E08E0F8093AE
S11319B05906F0E0E65AF94FC08380916B068F5FB9
S11319C080936B0680915906803111F41092590668
S11319D0FF91EF91CF91BF91AF919F918F917F91A3
S11319E06F915F914F913F912F910F900FBE0F9088
S11319F01F90189594B1906B94B995B1906195B975
S1131A0090E59CBD883021F0803211F0823019F4C9
S1131A1091E09DBD01C01DBC803269F028F488307E
S1131A2071F0803161F00EC0803429F0803851F4B7
S1131A308CB581608CBD8CB582608CBD03C08CB5C7
S1131A4081608CBD85B18F7E85B908958EBD0DB43E
S1131A5007FEFDCF8EB508959F938F937F936F9369
S1131A608DE291E09F938F930E9455120F900F90F7
S1131A700F900F900F900F90089588E291E09F933C
S1131A808F930E9455120F900F900895109248035F
S1131A901092490310924A0310924B0316BC8CE730
S1131AA087BD82E084BD83E085BDEEE6F0E0808101
S1131AB08260808385B3827085BB08958FB7282F99
S1131AC02078F894609148037091490380914A0307
S1131AD090914B03222309F0789408951F920F925A
S1131AE00FB60F9211240F931F932F933F934F938D
S1131AF05F936F937F938F939F93AF93BF93CF9392
S1131B00EF93FF938091480390914903A0914A0376
S1131B10B0914B030196A11DB11D8093480390938E
S1131B204903A0934A03B0934B0382B1807490E0BD
S1131B30082E892F000C881F990B000C881F991FF1
S1131B40C82F0E944904882309F4BEC0C130B1F4EF
S1131B500E9446049DEC899F912D1124969596959B
S1131B609695990F292F220F220F920F891BE82F88
S1131B70F0E0EC5EFE4F808188B90EC00E944604FE
S1131B80EDEC8E9FE12D1124E695E695E695F0E0C7
S1131B90EC5EFE4F808188B992B180E4892782B9D6
S1131BA0409148035091490360914A0370914B035B
S1131BB08091100190911101A0911201B091130133
S1131BC084179507A607B70768F48FEF9FEFDC012A
S1131BD08093100190931101A0931201B09313010B
S1131BE00E94510F80917C06813009F06EC04091B3
S1131BF082065091830660918406709185068091D7
S1131C00480390914903A0914A03B0914B034817AC
S1131C1059076A077B0708F058C020917D06822F78
S1131C2090E0FC01EE0FFF1FE459F94F4081518110
S1131C304F3F5F4F11F0283028F010927C060E942D
S1131C40510F43C0ECE6F6E00289138924893589F3
S1131C50409148035091490360914A0370914B03AA
S1131C60400F511F621F731F468B578B608F718FFC
S1131C70880F991FFC01E459F94F0190F081E02D80
S1131C80E830F105D8F4E25CFF4F0C9411120E9485
S1131C90031014C00E940A1011C00E9411100EC03B
S1131CA00E9418100BC00E941F1008C00E9426102A
S1131CB005C00E942D1002C00E94510FECE6F6E010
S1131CC081898F5F818B01C018B8FF91EF91CF910B
S1131CD0BF91AF919F918F917F916F915F914F9140
S1131CE03F912F911F910F910F900FBE0F901F9056
S1131CF01895ECE6F6E081E090E09183808383E040
S1131D0090E09383828385E090E0958384838FEFD2
S1131D109FEF9783868391878087938782879587B0
S1131D2084879787868781E0808B118A88EC90E08E
S1131D30A0E0B0E0828B938BA48BB58B168A178AB4
S1131D40108E118E0895ECE6F6E081E090E0918328
S1131D50808322E030E03383228323E030E0358344
S1131D60248324E030E03783268325E030E0318784
S1131D70208713861286958784878FEF9FEF978736
S1131D80868781E0808B118A88EC90E0A0E0B0E047
S1131D90828B938BA48BB58B168A178A108E118E27
S1131DA00895ECE6F6E084E090E09183808383E09C
S1131DB090E0938382831582148286E090E0978377
S1131DC086839187808793878287958784878FEF1F
S1131DD09FEF9787868781E0808B118A86E990E060
S1131DE0A0E0B0E0828B938BA48BB58B168A178A04
S1131DF0108E118E0895ECE6F6E086E090E0918373
S1131E00808385E090E09383828384E090E09583EF
S1131E10848383E090E09783868382E090E09187D7
S1131E2080878FEF9FEF9387828795878487978733
S1131E30868781E0808B118A88E790E0A0E0B0E09B
S1131E40828B938BA48BB58B168A178A108E118E76
S1131E5008959C0140E050E060E472E48FE090E07B
S1131E600E94D011C9010895CF92DF92EF92FF92A0
S1131E706B017C01BA0180E090E00E94D510A701BB
S1131E8096010E94631120E030E048EC52E40E9485
S1131E9034100E94A610CB01FF90EF90DF90CF90FA
S1131EA0089510928000109281008AB18F7E8AB9C1
S1131EB00895CF93DF9310928A0684EF91E0909374
S1131EC087068093860680E090E0A0EAB1E48093E0
S1131ED08B0690938C06A0938D06B0938E0684EFA8
S1131EE091E00E94290FEC01909389068093880663
S1131EF0AC0160E070E080EA91E40E94340F9093BA
S1131F00900680938F062197D0938900C093880010
S1131F1080918F0690919006009729F410928B007F
S1131F2010928A0005C0019790938B0080938A00D9
S1131F300E94510FDF91CF91089580918A068130DC
S1131F4019F410928A06089581E080938A060E940B
S1131F50510F089580918A06811109C08AB1806168
S1131F608AB983E2809380008AE180938100089596
S1131F70CF92DF92EF92FF92CF93DF93EC01909395
S1131F8087068093860680E090E00E94D5106B015E
S1131F907C0160938B0670938C0680938D069093DE
S1131FA08E06CE010E94290FEC019093890680933E
S1131FB08806AC01C701B6010E94340F90939006C5
S1131FC080938F062197D0938900C09388008091D5
S1131FD08F0690919006009729F410928B0010922E
S1131FE08A0005C0019790938B0080938A000E9419
S1131FF0AA0FDF91CF91FF90EF90DF90CF900895DB
S113200080918A06089562E370E088EB91E00E9473
S1132010B80F089562E370E08EEE91E00E94B80F6D
S1132020089562E370E086E091E00E94B80F08959D
S113203062E370E085E291E00E94B80F089562E3E4
S113204070E08AE491E00E94B80F089562E370E0C2
S11320508DE591E00E94B80F089562E370E087E88F
S113206091E00E94B80F08950E9448100C94291121
S11320700E94221158F00E941B1140F029F45F3F86
S113208029F00C94121151110C945D110C94181137
S11320900E943A1168F39923B1F3552391F3951BE8
S11320A0550BBB27AA2762177307840738F09F5F75
S11320B05F4F220F331F441FAA1FA9F335D00E2EE2
S11320C03AF0E0E832D091505040E695001CCAF74F
S11320D02BD0FE2F29D0660F771F881FBB1F261712
S11320E037074807AB07B0E809F0BB0B802DBF01E9
S11320F0FF2793585F4F3AF09E3F510578F00C94B8
S113210012110C945D115F3FE4F3983ED4F386956D
S113211077956795B795F7959F5FC9F7880F911DD8
S11321209695879597F90895E1E0660F771F881FC4
S1132130BB1F621773078407BA0720F0621B730B77
S1132140840BBA0BEE1F88F7E09508950E944211A4
S113215088F09F5798F0B92F9927B751B0F0E1F064
S1132160660F771F881F991F1AF0BA95C9F714C014
S1132170B13091F00E945C11B1E008950C945C11AF
S1132180672F782F8827B85F39F0B93FCCF386954D
S113219077956795B395D9F73EF4909580957095AA
S11321A061957F4F8F4F9F4F0895E89409C097FB27
S11321B03EF490958095709561957F4F8F4F9F4F1A
S11321C09923A9F0F92F96E9BB279395F69587955E
S11321D077956795B795F111F8CFFAF4BB0F11F421
S11321E060FF1BC06F5F7F4F8F4F9F4F16C08823C8
S11321F011F096E911C0772321F09EE8872F762FFE
S113220005C0662371F096E8862F70E060E02AF03E
S11322109A95660F771F881FDAF7880F969587952A
S113222097F9089597F99F6780E870E060E0089552
S11322309FEF80EC089500240A94161617061806DA
S11322400906089500240A941216130614060506B6
S11322500895092E0394000C11F4882352F0BB0F47
S113226040F4BF2B11F460FF04C06F5F7F4F8F4FAA
S11322709F4F089557FD9058440F551F59F05F3FE5
S113228071F04795880F97FB991F61F09F3F79F094
S113229087950895121613061406551FF2CF469516
S11322A0F1DF08C0161617061806991FF1CF869598
S11322B07105610508940895E894BB27662777277C
S11322C0CB0197F908950E9476110C9429110E946C
S11322D01B1138F00E94221120F0952311F00C9468
S11322E012110C94181111240C945D110E943A11CE
S11322F070F3959FC1F3950F50E0551F629FF00155
S1132300729FBB27F00DB11D639FAA27F00DB11D6D
S1132310AA1F649F6627B00DA11D661F829F2227F6
S1132320B00DA11D621F739FB00DA11D621F839F7D
S1132330A00D611D221F749F3327A00D611D231F53
S1132340849F600D211D822F762F6A2F11249F57A1
S113235050409AF0F1F088234AF0EE0FFF1FBB1FA4
S1132360661F771F881F91505040A9F79E3F510563
S113237080F00C9412110C945D115F3FE4F3983ECD
S1132380D4F3869577956795B795F795E7959F5F0D
S1132390C1F7FE2B880F911D9695879597F908959F
S11323A0A1E21A2EAA1BBB1BFD010DC0AA1FBB1F55
S11323B0EE1FFF1FA217B307E407F50720F0A21BC7
S11323C0B30BE40BF50B661F771F881F991F1A9434
S11323D069F760957095809590959B01AC01BD015E
S11323E0CF010895052E97FB1EF400940E94091254
S11323F057FD07D00E94D01107FC03D04EF40C9473
S1132400091250954095309521953F4F4F4F5F4F9E
S1132410089590958095709561957F4F8F4F9F4F4C
S11324200895EE0FFF1F0590F491E02D0994CF93CA
S1132430DF93EC012B8120FF33C026FF0AC02F7BE2
S11324402B838E819F8101969F838E838A8190E066
S113245029C022FF0FC0E881F9818081082E000C79
S1132460990B009719F420622B831AC03196F983D3
S1132470E8830EC0EA85FB85099597FF09C02B8187
S1132480019611F080E201C080E1822B8B8308C0A9
S11324902E813F812F5F3F4F3F832E83992702C0B8
S11324A08FEF9FEFDF91CF910895A0E0B0E0EBE5CF
S11324B0F2E10C941A15AE01495F5F4FDA016D9198
S11324C07D91AD0101E916E0F80182819381DC017F
S11324D013962C911397286013962C930E947B12C9
S11324E0D8011296ED91FC9113972381277F2383C2
S11324F0E4E00C943615ABE0B0E0E1E8F2E10C94D2
S11325000C156C017B018A01FC0117821682838100
S113251081FFCCC1CE0101963C01F6019381F70104
S113252093FD859193FF81917F01882309F4BAC1BA
S1132530853239F493FD859193FF81917F01853232
S113254029F4B60190E00E947214E7CF912C212C5B
S1132550312CFFE1F315D8F08B3279F038F4803266
S113256079F08332A1F4232D20611DC08D3261F0F6
S1132570803369F4232D216016C0832D8260382EA8
S1132580E32DE4603E2E2AC0F32DF8601DC037FC15
S11325902DC020ED280F2A3040F08E32B9F436FCDD
S11325A081C1232D2064322E19C036FE06C08AE074
S11325B0989E200D1124922E11C0EAE02E9E200D2B
S11325C01124222EF32DF0623F2E08C08C3621F404
S11325D0832D8068382E02C0883641F4F70193FDBC
S11325E0859193FF81917F018111B3CF982F9F7DB6
S11325F09554933028F40C5F1F4F9FE399830DC0CB
S1132600833631F0833771F0833509F059C021C026
S1132610F801808189830E5F1F4F88248394912C55
S1132620530113C02801F2E04F0E511CF801A080A1
S1132630B18036FE03C0692D70E002C06FEF7FEFFA
S1132640C5010E9467144C018201F32DFF773F2ED0
S113265016C0280122E0420E511CF801A080B1806E
S113266036FE03C0692D70E002C06FEF7FEFC50135
S11326700E945C144C01F32DF0683F2E820133FC60
S11326801BC0822D90E088169906B0F4B60180E252
S113269090E00E9472142A94F4CFF50137FC8591DE
S11326A037FE81915F01B60190E00E9472142110FF
S11326B02A9421E0821A91088114910471F7E8C0E8
S11326C0843611F0893641F5F80137FE07C0608180
S11326D07181828193810C5F1F4F08C06081718179
S11326E0072E000C880B990B0E5F1F4FF32DFF76FE
S11326F03F2E97FF09C090958095709561957F4F07
S11327008F4F9F4FF0683F2E2AE030E0A3010E94D4
S1132710AE14882E861845C0853731F4232D2F7EBC
S1132720B22E2AE030E025C0932D997FB92E8F3642
S1132730C1F018F4883579F0B5C0803719F08837BE
S113274021F0B0C0E92FE061BE2EB4FE0DC0FB2D18
S1132750F460BF2E09C034FE0AC0292F2660B22EB1
S113276006C028E030E005C020E130E002C020E1EE
S113277032E0F801B7FE07C06081718182819381E4
S11327800C5F1F4F06C06081718180E090E00E5F96
S11327901F4FA3010E94AE14882E8618FB2DFF77CD
S11327A03F2E36FE0DC0232D2E7FA22E891458F401
S11327B034FE0BC032FC09C0832D8E7EA82E05C0CA
S11327C0B82CA32C03C0B82C01C0B92CA4FE0FC094
S11327D0FE01E80DF11D8081803321F49A2D997E4C
S11327E0A92E09C0A2FE06C0B394B39404C08A2DD6
S11327F0867809F0B394A3FC11C0A0FE06C0B214FD
S113280088F4280C922C9B180EC0B21460F4B60104
S113281080E290E00E947214B394F7CFB21418F4DB
S11328202B1802C0982C212CA4FE10C0B60180E302
S113283090E00E947214A2FE17C0A1FC03C088E7B6
S113284090E002C088E590E0B6010CC08A2D86783D
S113285059F0A1FE02C08BE201C080E2A7FC8DE228
S1132860B60190E00E947214891438F4B60180E332
S113287090E00E9472149A94F7CF8A94F301E80DC1
S1132880F11D8081B60190E00E9472148110F5CF91
S1132890222009F442CEB60180E290E00E94721434
S11328A02A94F6CFF6018681978102C08FEF9FEFBD
S11328B02B96E2E10C942815FC01059061507040C0
S11328C00110D8F7809590958E0F9F1F0895FC01F5
S11328D06150704001900110D8F7809590958E0F4B
S11328E09F1F08950F931F93CF93DF93FB012381C1
S11328F021FD03C08FEF9FEF2CC022FF16C046813D
S11329005781248135814217530744F4A081B18152
S11329109D012F5F3F4F318320838C932681378124
S11329202F5F3F4F3783268314C08B01EC01FB01DB
S11329300084F185E02D0995892BE1F6D8011696DE
S11329408D919C911797019617969C938E93169749
S1132950CE01DF91CF911F910F910895FA01AA271B
S1132960283051F1203181F1E8946F936E7F6E5FCE
S11329707F4F8F4F9F4FAF4FB1E03ED0B4E03CD07C
S1132980670F781F891F9A1FA11D680F791F8A1F5F
S1132990911DA11D6A0F711D811D911DA11D20D0C6
S11329A009F468943F912AE0269F11243019305D80
S11329B03193DEF6CF010895462F4770405D419371
S11329C0B3E00FD0C9F7F6CF462F4F70405D4A33BE
S11329D018F0495D31FD4052419302D0A9F7EACF86
S11329E0B4E0A6959795879577956795BA95C9F7B5
S11329F000976105710508959B01AC010A2E0694A8
S1132A005795479537952795BA95C9F7620F731F60
S1132A10841F951FA01D08952F923F924F925F929D
S1132A206F927F928F929F92AF92BF92CF92DF92DA
S1132A30EF92FF920F931F93CF93DF93CDB7DEB73F
S1132A40CA1BDB0B0FB6F894DEBF0FBECDBF0994D3
S1132A502A88398848885F846E847D848C849B842A
S1132A60AA84B984C884DF80EE80FD800C811B8138
S1132A70AA81B981CE0FD11D0FB6F894DEBF0FBE67
S10D2A80CDBFED010895F894FFCFD7
S1132A8AFFFF0000000300000000AC0BE40B000091
S1132A9AFFFFFFFF3F065B4F666D7D077F6F7D4536
S1132AAA45390010387C3810007D2111217D000140
S1132ABA00FF0100FF000000000000000000000009
S1132ACA03000000030000000000000004000500E9
S1132ADA00000000040000000400000004000300D9
S1132AEA03000300040000000000000003000400C7
S1132AFA04000300040000000300000004000000B6
S1132B0A04000000040004000000040000000300A4
S1132B1A000000000000000004000000030005009B
S1132B2A0400000004000000040003000300030082
S1132B3A0400000000000000040000000400040077
S1132B4A0400030004000500000004000000000063
S1132B5A0400030004000000040004000400000050
S1132B6A0000000003000300030004000000040046
S1132B7A0000000000000400030005000400000037
S1132B8A0400000004000000000003000000030029
S1132B9A000003000000030000000000040000001D
S1132BAA0400000004000000000003000000040008
S1132BBA00000000030003000000000004000000FD
S1132BCA03000000030000000000000004000400E9
S1132BDA00000000040000000400000004000000DB
S1132BEA04000000040000000000000003000400C8
S1132BFA04000300040000000300000004000000B5
S1132C0A040000000400040004000400000003009F
S1132C1A0000000000000000040000000400050099
S1132C2A040000000400000000000300000000008B
S1132C3A040000000000000004000000000004007A
S1132C4A0400030004000500000004000000000062
S1132C5A0400030004000000000004000400000053
S1132C6A0000000004000400040004000000040042
S1132C7A000000000000040003000000040000003B
S1132C8A000000000300000000000300000003002D
S1132C9A000003000000030000000000040000001C
S1132CAA000000000400000000000300000004000B
S1112CBA0000000003000300000005000400F9
S9030000FC
